{
  "_format": "hh-sol-artifact-1",
  "contractName": "HAYQMiniMVP",
  "sourceName": "contracts/HAYQMiniMVP.sol",
  "abi": [
    {
      "inputs": [],
      "stateMutability": "nonpayable",
      "type": "constructor"
    },
    {
      "anonymous": false,
      "inputs": [
        {
          "indexed": true,
          "internalType": "address",
          "name": "owner",
          "type": "address"
        },
        {
          "indexed": true,
          "internalType": "address",
          "name": "spender",
          "type": "address"
        },
        {
          "indexed": false,
          "internalType": "uint256",
          "name": "value",
          "type": "uint256"
        }
      ],
      "name": "Approval",
      "type": "event"
    },
    {
      "anonymous": false,
      "inputs": [
        {
          "indexed": false,
          "internalType": "uint256",
          "name": "tokens",
          "type": "uint256"
        },
        {
          "indexed": false,
          "internalType": "uint256",
          "name": "minOut",
          "type": "uint256"
        }
      ],
      "name": "Buyback",
      "type": "event"
    },
    {
      "anonymous": false,
      "inputs": [
        {
          "indexed": false,
          "internalType": "uint8",
          "name": "version",
          "type": "uint8"
        }
      ],
      "name": "Initialized",
      "type": "event"
    },
    {
      "anonymous": false,
      "inputs": [
        {
          "indexed": true,
          "internalType": "address",
          "name": "previousOwner",
          "type": "address"
        },
        {
          "indexed": true,
          "internalType": "address",
          "name": "newOwner",
          "type": "address"
        }
      ],
      "name": "OwnershipTransferred",
      "type": "event"
    },
    {
      "anonymous": false,
      "inputs": [
        {
          "indexed": false,
          "internalType": "uint256",
          "name": "id",
          "type": "uint256"
        }
      ],
      "name": "Snapshot",
      "type": "event"
    },
    {
      "anonymous": false,
      "inputs": [
        {
          "indexed": true,
          "internalType": "address",
          "name": "user",
          "type": "address"
        },
        {
          "indexed": false,
          "internalType": "uint256",
          "name": "amount",
          "type": "uint256"
        }
      ],
      "name": "Staked",
      "type": "event"
    },
    {
      "anonymous": false,
      "inputs": [
        {
          "indexed": true,
          "internalType": "address",
          "name": "beneficiary",
          "type": "address"
        },
        {
          "indexed": false,
          "internalType": "uint256",
          "name": "amount",
          "type": "uint256"
        },
        {
          "indexed": false,
          "internalType": "uint64",
          "name": "start",
          "type": "uint64"
        },
        {
          "indexed": false,
          "internalType": "uint64",
          "name": "duration",
          "type": "uint64"
        }
      ],
      "name": "TeamVestingCreated",
      "type": "event"
    },
    {
      "anonymous": false,
      "inputs": [
        {
          "indexed": true,
          "internalType": "address",
          "name": "from",
          "type": "address"
        },
        {
          "indexed": true,
          "internalType": "address",
          "name": "to",
          "type": "address"
        },
        {
          "indexed": false,
          "internalType": "uint256",
          "name": "value",
          "type": "uint256"
        }
      ],
      "name": "Transfer",
      "type": "event"
    },
    {
      "anonymous": false,
      "inputs": [
        {
          "indexed": true,
          "internalType": "address",
          "name": "user",
          "type": "address"
        },
        {
          "indexed": false,
          "internalType": "uint256",
          "name": "amount",
          "type": "uint256"
        }
      ],
      "name": "Unstaked",
      "type": "event"
    },
    {
      "inputs": [
        {
          "internalType": "address",
          "name": "owner",
          "type": "address"
        },
        {
          "internalType": "address",
          "name": "spender",
          "type": "address"
        }
      ],
      "name": "allowance",
      "outputs": [
        {
          "internalType": "uint256",
          "name": "",
          "type": "uint256"
        }
      ],
      "stateMutability": "view",
      "type": "function"
    },
    {
      "inputs": [
        {
          "internalType": "address",
          "name": "user",
          "type": "address"
        }
      ],
      "name": "allowanceToRouter",
      "outputs": [
        {
          "internalType": "uint256",
          "name": "",
          "type": "uint256"
        }
      ],
      "stateMutability": "view",
      "type": "function"
    },
    {
      "inputs": [
        {
          "internalType": "address",
          "name": "spender",
          "type": "address"
        },
        {
          "internalType": "uint256",
          "name": "amount",
          "type": "uint256"
        }
      ],
      "name": "approve",
      "outputs": [
        {
          "internalType": "bool",
          "name": "",
          "type": "bool"
        }
      ],
      "stateMutability": "nonpayable",
      "type": "function"
    },
    {
      "inputs": [
        {
          "internalType": "address",
          "name": "account",
          "type": "address"
        }
      ],
      "name": "balanceOf",
      "outputs": [
        {
          "internalType": "uint256",
          "name": "",
          "type": "uint256"
        }
      ],
      "stateMutability": "view",
      "type": "function"
    },
    {
      "inputs": [
        {
          "internalType": "address",
          "name": "account",
          "type": "address"
        },
        {
          "internalType": "uint256",
          "name": "snapshotId",
          "type": "uint256"
        }
      ],
      "name": "balanceOfAt",
      "outputs": [
        {
          "internalType": "uint256",
          "name": "",
          "type": "uint256"
        }
      ],
      "stateMutability": "view",
      "type": "function"
    },
    {
      "inputs": [
        {
          "internalType": "uint256",
          "name": "tokenAmount",
          "type": "uint256"
        },
        {
          "internalType": "uint256",
          "name": "minOut",
          "type": "uint256"
        }
      ],
      "name": "buyback",
      "outputs": [],
      "stateMutability": "nonpayable",
      "type": "function"
    },
    {
      "inputs": [
        {
          "internalType": "address",
          "name": "beneficiary",
          "type": "address"
        },
        {
          "internalType": "uint256",
          "name": "amount",
          "type": "uint256"
        },
        {
          "internalType": "uint64",
          "name": "start",
          "type": "uint64"
        },
        {
          "internalType": "uint64",
          "name": "duration",
          "type": "uint64"
        }
      ],
      "name": "createTeamVesting",
      "outputs": [],
      "stateMutability": "nonpayable",
      "type": "function"
    },
    {
      "inputs": [],
      "name": "decimals",
      "outputs": [
        {
          "internalType": "uint8",
          "name": "",
          "type": "uint8"
        }
      ],
      "stateMutability": "view",
      "type": "function"
    },
    {
      "inputs": [
        {
          "internalType": "address",
          "name": "spender",
          "type": "address"
        },
        {
          "internalType": "uint256",
          "name": "subtractedValue",
          "type": "uint256"
        }
      ],
      "name": "decreaseAllowance",
      "outputs": [
        {
          "internalType": "bool",
          "name": "",
          "type": "bool"
        }
      ],
      "stateMutability": "nonpayable",
      "type": "function"
    },
    {
      "inputs": [
        {
          "internalType": "address",
          "name": "spender",
          "type": "address"
        },
        {
          "internalType": "uint256",
          "name": "addedValue",
          "type": "uint256"
        }
      ],
      "name": "increaseAllowance",
      "outputs": [
        {
          "internalType": "bool",
          "name": "",
          "type": "bool"
        }
      ],
      "stateMutability": "nonpayable",
      "type": "function"
    },
    {
      "inputs": [
        {
          "internalType": "uint256",
          "name": "initialSupply",
          "type": "uint256"
        },
        {
          "internalType": "address",
          "name": "_router",
          "type": "address"
        }
      ],
      "name": "initialize",
      "outputs": [],
      "stateMutability": "nonpayable",
      "type": "function"
    },
    {
      "inputs": [],
      "name": "miniMVP",
      "outputs": [
        {
          "internalType": "contract IHAYQMiniMVP",
          "name": "",
          "type": "address"
        }
      ],
      "stateMutability": "view",
      "type": "function"
    },
    {
      "inputs": [
        {
          "internalType": "address",
          "name": "to",
          "type": "address"
        },
        {
          "internalType": "uint256",
          "name": "amount",
          "type": "uint256"
        }
      ],
      "name": "mint",
      "outputs": [],
      "stateMutability": "nonpayable",
      "type": "function"
    },
    {
      "inputs": [],
      "name": "name",
      "outputs": [
        {
          "internalType": "string",
          "name": "",
          "type": "string"
        }
      ],
      "stateMutability": "view",
      "type": "function"
    },
    {
      "inputs": [],
      "name": "owner",
      "outputs": [
        {
          "internalType": "address",
          "name": "",
          "type": "address"
        }
      ],
      "stateMutability": "view",
      "type": "function"
    },
    {
      "inputs": [],
      "name": "renounceOwnership",
      "outputs": [],
      "stateMutability": "nonpayable",
      "type": "function"
    },
    {
      "inputs": [],
      "name": "router",
      "outputs": [
        {
          "internalType": "contract IRouter",
          "name": "",
          "type": "address"
        }
      ],
      "stateMutability": "view",
      "type": "function"
    },
    {
      "inputs": [
        {
          "internalType": "address",
          "name": "_mini",
          "type": "address"
        }
      ],
      "name": "setMiniMVP",
      "outputs": [],
      "stateMutability": "nonpayable",
      "type": "function"
    },
    {
      "inputs": [
        {
          "internalType": "address",
          "name": "_router",
          "type": "address"
        }
      ],
      "name": "setRouter",
      "outputs": [],
      "stateMutability": "nonpayable",
      "type": "function"
    },
    {
      "inputs": [
        {
          "internalType": "address",
          "name": "_vault",
          "type": "address"
        }
      ],
      "name": "setVestingVault",
      "outputs": [],
      "stateMutability": "nonpayable",
      "type": "function"
    },
    {
      "inputs": [
        {
          "internalType": "address",
          "name": "_vault",
          "type": "address"
        }
      ],
      "name": "setVestingVaultReadable",
      "outputs": [],
      "stateMutability": "nonpayable",
      "type": "function"
    },
    {
      "inputs": [],
      "name": "snapshot",
      "outputs": [],
      "stateMutability": "nonpayable",
      "type": "function"
    },
    {
      "inputs": [
        {
          "internalType": "uint256",
          "name": "amount",
          "type": "uint256"
        }
      ],
      "name": "stake",
      "outputs": [],
      "stateMutability": "nonpayable",
      "type": "function"
    },
    {
      "inputs": [
        {
          "internalType": "address",
          "name": "",
          "type": "address"
        }
      ],
      "name": "staked",
      "outputs": [
        {
          "internalType": "uint256",
          "name": "",
          "type": "uint256"
        }
      ],
      "stateMutability": "view",
      "type": "function"
    },
    {
      "inputs": [
        {
          "internalType": "address",
          "name": "user",
          "type": "address"
        }
      ],
      "name": "stakedBalanceOf",
      "outputs": [
        {
          "internalType": "uint256",
          "name": "",
          "type": "uint256"
        }
      ],
      "stateMutability": "view",
      "type": "function"
    },
    {
      "inputs": [],
      "name": "symbol",
      "outputs": [
        {
          "internalType": "string",
          "name": "",
          "type": "string"
        }
      ],
      "stateMutability": "view",
      "type": "function"
    },
    {
      "inputs": [],
      "name": "totalSupply",
      "outputs": [
        {
          "internalType": "uint256",
          "name": "",
          "type": "uint256"
        }
      ],
      "stateMutability": "view",
      "type": "function"
    },
    {
      "inputs": [
        {
          "internalType": "uint256",
          "name": "snapshotId",
          "type": "uint256"
        }
      ],
      "name": "totalSupplyAt",
      "outputs": [
        {
          "internalType": "uint256",
          "name": "",
          "type": "uint256"
        }
      ],
      "stateMutability": "view",
      "type": "function"
    },
    {
      "inputs": [
        {
          "internalType": "address",
          "name": "to",
          "type": "address"
        },
        {
          "internalType": "uint256",
          "name": "amount",
          "type": "uint256"
        }
      ],
      "name": "transfer",
      "outputs": [
        {
          "internalType": "bool",
          "name": "",
          "type": "bool"
        }
      ],
      "stateMutability": "nonpayable",
      "type": "function"
    },
    {
      "inputs": [
        {
          "internalType": "address",
          "name": "from",
          "type": "address"
        },
        {
          "internalType": "address",
          "name": "to",
          "type": "address"
        },
        {
          "internalType": "uint256",
          "name": "amount",
          "type": "uint256"
        }
      ],
      "name": "transferFrom",
      "outputs": [
        {
          "internalType": "bool",
          "name": "",
          "type": "bool"
        }
      ],
      "stateMutability": "nonpayable",
      "type": "function"
    },
    {
      "inputs": [
        {
          "internalType": "address",
          "name": "newOwner",
          "type": "address"
        }
      ],
      "name": "transferOwnership",
      "outputs": [],
      "stateMutability": "nonpayable",
      "type": "function"
    },
    {
      "inputs": [
        {
          "internalType": "uint256",
          "name": "amount",
          "type": "uint256"
        }
      ],
      "name": "unstake",
      "outputs": [],
      "stateMutability": "nonpayable",
      "type": "function"
    },
    {
      "inputs": [
        {
          "internalType": "address",
          "name": "user",
          "type": "address"
        }
      ],
      "name": "vestingReleased",
      "outputs": [
        {
          "internalType": "uint256",
          "name": "",
          "type": "uint256"
        }
      ],
      "stateMutability": "view",
      "type": "function"
    },
    {
      "inputs": [
        {
          "internalType": "address",
          "name": "user",
          "type": "address"
        }
      ],
      "name": "vestingTotal",
      "outputs": [
        {
          "internalType": "uint256",
          "name": "",
          "type": "uint256"
        }
      ],
      "stateMutability": "view",
      "type": "function"
    },
    {
      "inputs": [],
      "name": "vestingVault",
      "outputs": [
        {
          "internalType": "address",
          "name": "",
          "type": "address"
        }
      ],
      "stateMutability": "view",
      "type": "function"
    },
    {
      "inputs": [],
      "name": "vestingVaultReadable",
      "outputs": [
        {
          "internalType": "contract IVestingVaultReadable",
          "name": "",
          "type": "address"
        }
      ],
      "stateMutability": "view",
      "type": "function"
    }
  ],
  "bytecode": "0x6080604052348015600f57600080fd5b506016601a565b60d7565b600054610100900460ff161560855760405162461bcd60e51b815260206004820152602760248201527f496e697469616c697a61626c653a20636f6e747261637420697320696e697469604482015266616c697a696e6760c81b606482015260840160405180910390fd5b60005460ff9081161460d5576000805460ff191660ff9081179091556040519081527f7f26b83ff96e1f2b6a682f133852f6798a09c465da95921460cefb38474024989060200160405180910390a15b565b61204f806100e66000396000f3fe608060405234801561001057600080fd5b506004361061021c5760003560e01c806389f7eb2811610125578063a9059cbb116100ad578063c12a93971161007c578063c12a9397146104b8578063da35a26f146104cb578063dd62ed3e146104de578063f2fde38b146104f1578063f887ea401461050457600080fd5b8063a9059cbb1461046c578063a91468ba1461047f578063b9020b7814610492578063c0d78655146104a557600080fd5b8063981b24d0116100f4578063981b24d01461040057806398807d8414610413578063a457c2d714610433578063a5917baf14610446578063a694fc3a1461045957600080fd5b806389f7eb28146103cc5780638da5cb5b146103df57806395d89b41146103f05780639711715a146103f857600080fd5b806339509351116101a85780636202bbfe116101775780636202bbfe146103625780636e3821841461037557806370a0823114610388578063715018a6146103b1578063881726a7146103b957600080fd5b8063395093511461031657806340c10f1914610329578063460ddf8d1461033c5780634ee2cd7e1461034f57600080fd5b806316e530b4116101ef57806316e530b4146102c457806318160ddd146102d757806323b872dd146102df5780632e17de78146102f2578063313ce5671461030757600080fd5b806306fdde0314610221578063095ea7b31461023f57806312fb2db014610262578063167653911461028d575b600080fd5b610229610517565b6040516102369190611bf0565b60405180910390f35b61025261024d366004611c55565b6105a9565b6040519015158152602001610236565b60fc54610275906001600160a01b031681565b6040516001600160a01b039091168152602001610236565b6102b661029b366004611c7f565b6001600160a01b0316600090815260fd602052604090205490565b604051908152602001610236565b6102b66102d2366004611c7f565b6105c3565b6035546102b6565b6102526102ed366004611c9a565b61064d565b610305610300366004611cd7565b610671565b005b60405160128152602001610236565b610252610324366004611c55565b610743565b610305610337366004611c55565b610765565b61030561034a366004611cf0565b61078c565b6102b661035d366004611c55565b610848565b610305610370366004611c7f565b6108a1565b6102b6610383366004611c7f565b6108cb565b6102b6610396366004611c7f565b6001600160a01b031660009081526033602052604090205490565b610305610918565b6103056103c7366004611d2a565b61092c565b6103056103da366004611c7f565b610b39565b6097546001600160a01b0316610275565b610229610ba9565b610305610bb8565b6102b661040e366004611cd7565b610bc8565b6102b6610421366004611c7f565b60fd6020526000908152604090205481565b610252610441366004611c55565b610bf3565b60fe54610275906001600160a01b031681565b610305610467366004611cd7565b610c6e565b61025261047a366004611c55565b610d2c565b61030561048d366004611c7f565b610d3a565b60ff54610275906001600160a01b031681565b6103056104b3366004611c7f565b610daa565b6102b66104c6366004611c7f565b610e1b565b6103056104d9366004611d77565b610e6e565b6102b66104ec366004611da3565b61103e565b6103056104ff366004611c7f565b611069565b60fb54610275906001600160a01b031681565b60606036805461052690611dcd565b80601f016020809104026020016040519081016040528092919081815260200182805461055290611dcd565b801561059f5780601f106105745761010080835404028352916020019161059f565b820191906000526020600020905b81548152906001019060200180831161058257829003601f168201915b5050505050905090565b6000336105b78185856110df565b60019150505b92915050565b60ff546000906001600160a01b03166105de57506000919050565b60ff54604051632614965760e21b81526001600160a01b03848116600483015290911690639852595c906024015b602060405180830381865afa158015610629573d6000803e3d6000fd5b505050506040513d601f19601f820116820180604052508101906105bd9190611e07565b60003361065b858285611203565b61066685858561127d565b506001949350505050565b610679611433565b33600090815260fd60205260409020548111156106d15760405162461bcd60e51b8152602060048201526011602482015270139bdd08195b9bdd59da081cdd185ad959607a1b60448201526064015b60405180910390fd5b33600090815260fd6020526040812080548392906106f0908490611e36565b909155506107009050338261148c565b60405181815233907f0f5bb82176feb1b5e747e28471aa92156a04d9f3ab9f45f28e2d704232b93f75906020015b60405180910390a2610740600160c955565b50565b6000336105b7818585610756838361103e565b6107609190611e49565b6110df565b61076d611560565b6107888261078383670de0b6b3a7640000611e5c565b61148c565b5050565b610794611560565b61079c611433565b306000908152603360205260409020548211156107fb5760405162461bcd60e51b815260206004820152601d60248201527f4e6f7420656e6f75676820746f6b656e7320696e20636f6e747261637400000060448201526064016106c8565b61080530836115ba565b60408051838152602081018390527f4e57162cf2059954fd33f1ecaaf1832e379957714070ad171bc5382b18c98d3c910160405180910390a1610788600160c955565b6001600160a01b03821660009081526065602052604081208190819061086f9085906116fa565b9150915081610896576001600160a01b038516600090815260336020526040902054610898565b805b95945050505050565b6108a9611560565b60fc80546001600160a01b0319166001600160a01b0392909216919091179055565b60ff546000906001600160a01b03166108e657506000919050565b60ff5460405163b13e4a9d60e01b81526001600160a01b0384811660048301529091169063b13e4a9d9060240161060c565b610920611560565b61092a60006117f0565b565b610934611560565b60fe546001600160a01b03166109845760405162461bcd60e51b815260206004820152601560248201527415995cdd1a5b99c81d985d5b1d081b9bdd081cd95d605a1b60448201526064016106c8565b6001600160a01b0384166109d05760405162461bcd60e51b8152602060048201526013602482015272496e76616c69642062656e656669636961727960681b60448201526064016106c8565b60006109e484670de0b6b3a7640000611e5c565b33600090815260336020526040902054909150811115610a465760405162461bcd60e51b815260206004820181905260248201527f496e73756666696369656e742062616c616e636520666f722076657374696e6760448201526064016106c8565b60fe54610a5e9033906001600160a01b03168361127d565b60fe54604051634a0f414760e11b81526001600160a01b0387811660048301526024820184905267ffffffffffffffff8087166044840152851660648301529091169063941e828e90608401600060405180830381600087803b158015610ac457600080fd5b505af1158015610ad8573d6000803e3d6000fd5b50506040805184815267ffffffffffffffff878116602083015286168183015290516001600160a01b03891693507f7968e3052deb7937b8347ef1b8c9fa0ea913942e6f846a1cb18e0b9b4ad1d27592509081900360600190a25050505050565b610b41611560565b6001600160a01b038116610b875760405162461bcd60e51b815260206004820152600d60248201526c125b9d985b1a59081d985d5b1d609a1b60448201526064016106c8565b60ff80546001600160a01b0319166001600160a01b0392909216919091179055565b60606037805461052690611dcd565b610bc0611560565b610740611842565b6000806000610bd88460666116fa565b9150915081610be957603554610beb565b805b949350505050565b60003381610c01828661103e565b905083811015610c615760405162461bcd60e51b815260206004820152602560248201527f45524332303a2064656372656173656420616c6c6f77616e63652062656c6f77604482015264207a65726f60d81b60648201526084016106c8565b61066682868684036110df565b610c76611433565b33600090815260336020526040902054811115610ccc5760405162461bcd60e51b8152602060048201526014602482015273496e73756666696369656e742062616c616e636560601b60448201526064016106c8565b610cd633826115ba565b33600090815260fd602052604081208054839290610cf5908490611e49565b909155505060405181815233907f9e71bc8eea02a63969f509818f2dafb9254532904319f9dbda79b67bd34a5f3d9060200161072e565b6000336105b781858561127d565b610d42611560565b6001600160a01b038116610d885760405162461bcd60e51b815260206004820152600d60248201526c125b9d985b1a59081d985d5b1d609a1b60448201526064016106c8565b60fe80546001600160a01b0319166001600160a01b0392909216919091179055565b610db2611560565b6001600160a01b038116610df95760405162461bcd60e51b815260206004820152600e60248201526d24b73b30b634b2103937baba32b960911b60448201526064016106c8565b60fb80546001600160a01b0319166001600160a01b0392909216919091179055565b60fb546000906001600160a01b0316610e3657506000919050565b60fb54604051636eb1769f60e11b81526001600160a01b0380851660048301529091166024820152309063dd62ed3e9060440161060c565b600054610100900460ff1615808015610e8e5750600054600160ff909116105b80610ea85750303b158015610ea8575060005460ff166001145b610f0b5760405162461bcd60e51b815260206004820152602e60248201527f496e697469616c697a61626c653a20636f6e747261637420697320616c72656160448201526d191e481a5b9a5d1a585b1a5e995960921b60648201526084016106c8565b6000805460ff191660011790558015610f2e576000805461ff0019166101001790555b610f766040518060400160405280600a8152602001692420aca8902a37b5b2b760b11b815250604051806040016040528060048152602001634841595160e01b81525061189c565b610f7e6118cd565b610f866118f4565b610f8e611923565b6001600160a01b03821615610fb95760fb80546001600160a01b0319166001600160a01b0384161790555b60fc80546001600160a01b031990811690915560fe80548216905560ff80549091169055610ff33361078385670de0b6b3a7640000611e5c565b8015611039576000805461ff0019169055604051600181527f7f26b83ff96e1f2b6a682f133852f6798a09c465da95921460cefb38474024989060200160405180910390a15b505050565b6001600160a01b03918216600090815260346020908152604080832093909416825291909152205490565b611071611560565b6001600160a01b0381166110d65760405162461bcd60e51b815260206004820152602660248201527f4f776e61626c653a206e6577206f776e657220697320746865207a65726f206160448201526564647265737360d01b60648201526084016106c8565b610740816117f0565b6001600160a01b0383166111415760405162461bcd60e51b8152602060048201526024808201527f45524332303a20617070726f76652066726f6d20746865207a65726f206164646044820152637265737360e01b60648201526084016106c8565b6001600160a01b0382166111a25760405162461bcd60e51b815260206004820152602260248201527f45524332303a20617070726f766520746f20746865207a65726f206164647265604482015261737360f01b60648201526084016106c8565b6001600160a01b0383811660008181526034602090815260408083209487168084529482529182902085905590518481527f8c5be1e5ebec7d5bd14f71427d1e84f3dd0314c0f7b2291e5b200ac8c7c3b925910160405180910390a3505050565b600061120f848461103e565b90506000198114611277578181101561126a5760405162461bcd60e51b815260206004820152601d60248201527f45524332303a20696e73756666696369656e7420616c6c6f77616e636500000060448201526064016106c8565b61127784848484036110df565b50505050565b6001600160a01b0383166112e15760405162461bcd60e51b815260206004820152602560248201527f45524332303a207472616e736665722066726f6d20746865207a65726f206164604482015264647265737360d81b60648201526084016106c8565b6001600160a01b0382166113435760405162461bcd60e51b815260206004820152602360248201527f45524332303a207472616e7366657220746f20746865207a65726f206164647260448201526265737360e81b60648201526084016106c8565b61134e838383611952565b6001600160a01b038316600090815260336020526040902054818110156113c65760405162461bcd60e51b815260206004820152602660248201527f45524332303a207472616e7366657220616d6f756e7420657863656564732062604482015265616c616e636560d01b60648201526084016106c8565b6001600160a01b0380851660008181526033602052604080822086860390559286168082529083902080548601905591517fddf252ad1be2c89b69c2b068fc378daa952ba7f163c4a11628f55a4df523b3ef906114269086815260200190565b60405180910390a3611277565b600260c954036114855760405162461bcd60e51b815260206004820152601f60248201527f5265656e7472616e637947756172643a207265656e7472616e742063616c6c0060448201526064016106c8565b600260c955565b6001600160a01b0382166114e25760405162461bcd60e51b815260206004820152601f60248201527f45524332303a206d696e7420746f20746865207a65726f20616464726573730060448201526064016106c8565b6114ee60008383611952565b80603560008282546115009190611e49565b90915550506001600160a01b0382166000818152603360209081526040808320805486019055518481527fddf252ad1be2c89b69c2b068fc378daa952ba7f163c4a11628f55a4df523b3ef910160405180910390a35050565b600160c955565b6097546001600160a01b0316331461092a5760405162461bcd60e51b815260206004820181905260248201527f4f776e61626c653a2063616c6c6572206973206e6f7420746865206f776e657260448201526064016106c8565b6001600160a01b03821661161a5760405162461bcd60e51b815260206004820152602160248201527f45524332303a206275726e2066726f6d20746865207a65726f206164647265736044820152607360f81b60648201526084016106c8565b61162682600083611952565b6001600160a01b0382166000908152603360205260409020548181101561169a5760405162461bcd60e51b815260206004820152602260248201527f45524332303a206275726e20616d6f756e7420657863656564732062616c616e604482015261636560f01b60648201526084016106c8565b6001600160a01b03831660008181526033602090815260408083208686039055603580548790039055518581529192917fddf252ad1be2c89b69c2b068fc378daa952ba7f163c4a11628f55a4df523b3ef910160405180910390a3505050565b600080600084116117465760405162461bcd60e51b815260206004820152601660248201527504552433230536e617073686f743a20696420697320360541b60448201526064016106c8565b61174e61195d565b84111561179d5760405162461bcd60e51b815260206004820152601d60248201527f4552433230536e617073686f743a206e6f6e6578697374656e7420696400000060448201526064016106c8565b60006117a9848661196d565b845490915081036117c15760008092509250506117e9565b60018460010182815481106117d8576117d8611e73565b906000526020600020015492509250505b9250929050565b609780546001600160a01b038381166001600160a01b0319831681179093556040519116919082907f8be0079c531659141344cd1fd0a4f28419497f9722a3daafe3b4186f6b6457e090600090a35050565b6000611852606880546001019055565b600061185c61195d565b90507f8030e83b04d87bef53480e26263266d6ca66863aa8506aca6f2559d18aa1cb678160405161188f91815260200190565b60405180910390a1919050565b600054610100900460ff166118c35760405162461bcd60e51b81526004016106c890611e89565b6107888282611a1a565b600054610100900460ff1661092a5760405162461bcd60e51b81526004016106c890611e89565b600054610100900460ff1661191b5760405162461bcd60e51b81526004016106c890611e89565b61092a611a5a565b600054610100900460ff1661194a5760405162461bcd60e51b81526004016106c890611e89565b61092a611a8a565b611039838383611ab1565b600061196860685490565b905090565b81546000908103611980575060006105bd565b82546000905b808210156119cd57600061199a8383611af9565b600087815260209020909150859082015411156119b9578091506119c7565b6119c4816001611e49565b92505b50611986565b6000821180156119f95750836119f6866119e8600186611e36565b600091825260209091200190565b54145b15611a1257611a09600183611e36565b925050506105bd565b5090506105bd565b600054610100900460ff16611a415760405162461bcd60e51b81526004016106c890611e89565b6036611a4d8382611f38565b5060376110398282611f38565b600054610100900460ff16611a815760405162461bcd60e51b81526004016106c890611e89565b61092a336117f0565b600054610100900460ff166115595760405162461bcd60e51b81526004016106c890611e89565b6001600160a01b038316611ad057611ac882611b1b565b611039611b4e565b6001600160a01b038216611ae757611ac883611b1b565b611af083611b1b565b61103982611b1b565b6000611b086002848418611ff7565b611b1490848416611e49565b9392505050565b6001600160a01b03811660009081526065602090815260408083206033909252909120546107409190611b5c565b611b5c565b61092a6066611b4960355490565b6000611b6661195d565b905080611b7284611ba6565b1015611039578254600180820185556000858152602080822090930193909355938401805494850181558252902090910155565b80546000908103611bb957506000919050565b81548290611bc990600190611e36565b81548110611bd957611bd9611e73565b90600052602060002001549050919050565b919050565b602081526000825180602084015260005b81811015611c1e5760208186018101516040868401015201611c01565b506000604082850101526040601f19601f83011684010191505092915050565b80356001600160a01b0381168114611beb57600080fd5b60008060408385031215611c6857600080fd5b611c7183611c3e565b946020939093013593505050565b600060208284031215611c9157600080fd5b611b1482611c3e565b600080600060608486031215611caf57600080fd5b611cb884611c3e565b9250611cc660208501611c3e565b929592945050506040919091013590565b600060208284031215611ce957600080fd5b5035919050565b60008060408385031215611d0357600080fd5b50508035926020909101359150565b803567ffffffffffffffff81168114611beb57600080fd5b60008060008060808587031215611d4057600080fd5b611d4985611c3e565b935060208501359250611d5e60408601611d12565b9150611d6c60608601611d12565b905092959194509250565b60008060408385031215611d8a57600080fd5b82359150611d9a60208401611c3e565b90509250929050565b60008060408385031215611db657600080fd5b611dbf83611c3e565b9150611d9a60208401611c3e565b600181811c90821680611de157607f821691505b602082108103611e0157634e487b7160e01b600052602260045260246000fd5b50919050565b600060208284031215611e1957600080fd5b5051919050565b634e487b7160e01b600052601160045260246000fd5b818103818111156105bd576105bd611e20565b808201808211156105bd576105bd611e20565b80820281158282048414176105bd576105bd611e20565b634e487b7160e01b600052603260045260246000fd5b6020808252602b908201527f496e697469616c697a61626c653a20636f6e7472616374206973206e6f74206960408201526a6e697469616c697a696e6760a81b606082015260800190565b634e487b7160e01b600052604160045260246000fd5b601f82111561103957806000526020600020601f840160051c81016020851015611f115750805b601f840160051c820191505b81811015611f315760008155600101611f1d565b5050505050565b815167ffffffffffffffff811115611f5257611f52611ed4565b611f6681611f608454611dcd565b84611eea565b6020601f821160018114611f9a5760008315611f825750848201515b600019600385901b1c1916600184901b178455611f31565b600084815260208120601f198516915b82811015611fca5787850151825560209485019460019092019101611faa565b5084821015611fe85786840151600019600387901b60f8161c191681555b50505050600190811b01905550565b60008261201457634e487b7160e01b600052601260045260246000fd5b50049056fea264697066735822122025308627652a7a215bd523a6f3eff4d2da8ab7f587b9cf1752c9f695c9de3abd64736f6c634300081d0033",
  "linkReferences": {},
  "deployedLinkReferences": {}
}